{
  "address": "0x19222F6f71be4F83e1c4a6807a2969931d530D29",
  "abi": [
    {
      "inputs": [],
      "stateMutability": "nonpayable",
      "type": "constructor"
    },
    {
      "anonymous": false,
      "inputs": [
        {
          "indexed": true,
          "internalType": "address",
          "name": "owner",
          "type": "address"
        },
        {
          "indexed": true,
          "internalType": "address",
          "name": "approved",
          "type": "address"
        },
        {
          "indexed": true,
          "internalType": "uint256",
          "name": "tokenId",
          "type": "uint256"
        }
      ],
      "name": "Approval",
      "type": "event"
    },
    {
      "anonymous": false,
      "inputs": [
        {
          "indexed": true,
          "internalType": "address",
          "name": "owner",
          "type": "address"
        },
        {
          "indexed": true,
          "internalType": "address",
          "name": "operator",
          "type": "address"
        },
        {
          "indexed": false,
          "internalType": "bool",
          "name": "approved",
          "type": "bool"
        }
      ],
      "name": "ApprovalForAll",
      "type": "event"
    },
    {
      "anonymous": false,
      "inputs": [
        {
          "indexed": false,
          "internalType": "uint256",
          "name": "_fromTokenId",
          "type": "uint256"
        },
        {
          "indexed": false,
          "internalType": "uint256",
          "name": "_toTokenId",
          "type": "uint256"
        }
      ],
      "name": "BatchMetadataUpdate",
      "type": "event"
    },
    {
      "anonymous": false,
      "inputs": [
        {
          "indexed": false,
          "internalType": "uint256",
          "name": "firId",
          "type": "uint256"
        },
        {
          "indexed": false,
          "internalType": "uint256",
          "name": "timestamp",
          "type": "uint256"
        }
      ],
      "name": "CaseClosed",
      "type": "event"
    },
    {
      "anonymous": false,
      "inputs": [
        {
          "indexed": false,
          "internalType": "address",
          "name": "police",
          "type": "address"
        },
        {
          "indexed": false,
          "internalType": "address",
          "name": "lawyer",
          "type": "address"
        },
        {
          "indexed": false,
          "internalType": "uint256",
          "name": "timestamp",
          "type": "uint256"
        }
      ],
      "name": "ComplaintAssigned",
      "type": "event"
    },
    {
      "anonymous": false,
      "inputs": [
        {
          "indexed": false,
          "internalType": "address",
          "name": "raisedBy",
          "type": "address"
        },
        {
          "indexed": false,
          "internalType": "uint256",
          "name": "firId",
          "type": "uint256"
        },
        {
          "indexed": false,
          "internalType": "string",
          "name": "url",
          "type": "string"
        }
      ],
      "name": "ComplaintFiled",
      "type": "event"
    },
    {
      "anonymous": false,
      "inputs": [
        {
          "indexed": false,
          "internalType": "address",
          "name": "victim",
          "type": "address"
        },
        {
          "indexed": false,
          "internalType": "uint256",
          "name": "firId",
          "type": "uint256"
        },
        {
          "indexed": false,
          "internalType": "uint256",
          "name": "timestamp",
          "type": "uint256"
        }
      ],
      "name": "ComplaintWithdrawn",
      "type": "event"
    },
    {
      "anonymous": false,
      "inputs": [
        {
          "indexed": false,
          "internalType": "uint256",
          "name": "_tokenId",
          "type": "uint256"
        }
      ],
      "name": "MetadataUpdate",
      "type": "event"
    },
    {
      "anonymous": false,
      "inputs": [
        {
          "indexed": true,
          "internalType": "bytes32",
          "name": "role",
          "type": "bytes32"
        },
        {
          "indexed": true,
          "internalType": "bytes32",
          "name": "previousAdminRole",
          "type": "bytes32"
        },
        {
          "indexed": true,
          "internalType": "bytes32",
          "name": "newAdminRole",
          "type": "bytes32"
        }
      ],
      "name": "RoleAdminChanged",
      "type": "event"
    },
    {
      "anonymous": false,
      "inputs": [
        {
          "indexed": true,
          "internalType": "bytes32",
          "name": "role",
          "type": "bytes32"
        },
        {
          "indexed": true,
          "internalType": "address",
          "name": "account",
          "type": "address"
        },
        {
          "indexed": true,
          "internalType": "address",
          "name": "sender",
          "type": "address"
        }
      ],
      "name": "RoleGranted",
      "type": "event"
    },
    {
      "anonymous": false,
      "inputs": [
        {
          "indexed": true,
          "internalType": "bytes32",
          "name": "role",
          "type": "bytes32"
        },
        {
          "indexed": true,
          "internalType": "address",
          "name": "account",
          "type": "address"
        },
        {
          "indexed": true,
          "internalType": "address",
          "name": "sender",
          "type": "address"
        }
      ],
      "name": "RoleRevoked",
      "type": "event"
    },
    {
      "anonymous": false,
      "inputs": [
        {
          "indexed": true,
          "internalType": "address",
          "name": "from",
          "type": "address"
        },
        {
          "indexed": true,
          "internalType": "address",
          "name": "to",
          "type": "address"
        },
        {
          "indexed": true,
          "internalType": "uint256",
          "name": "tokenId",
          "type": "uint256"
        }
      ],
      "name": "Transfer",
      "type": "event"
    },
    {
      "inputs": [],
      "name": "DEFAULT_ADMIN_ROLE",
      "outputs": [
        {
          "internalType": "bytes32",
          "name": "",
          "type": "bytes32"
        }
      ],
      "stateMutability": "view",
      "type": "function"
    },
    {
      "inputs": [],
      "name": "LAWYER_ROLE",
      "outputs": [
        {
          "internalType": "bytes32",
          "name": "",
          "type": "bytes32"
        }
      ],
      "stateMutability": "view",
      "type": "function"
    },
    {
      "inputs": [],
      "name": "POLICE_ROLE",
      "outputs": [
        {
          "internalType": "bytes32",
          "name": "",
          "type": "bytes32"
        }
      ],
      "stateMutability": "view",
      "type": "function"
    },
    {
      "inputs": [
        {
          "internalType": "address",
          "name": "to",
          "type": "address"
        },
        {
          "internalType": "uint256",
          "name": "tokenId",
          "type": "uint256"
        }
      ],
      "name": "approve",
      "outputs": [],
      "stateMutability": "nonpayable",
      "type": "function"
    },
    {
      "inputs": [
        {
          "internalType": "uint256",
          "name": "firId",
          "type": "uint256"
        },
        {
          "internalType": "address",
          "name": "lawyer",
          "type": "address"
        }
      ],
      "name": "assignToLawyer",
      "outputs": [
        {
          "internalType": "bool",
          "name": "",
          "type": "bool"
        }
      ],
      "stateMutability": "nonpayable",
      "type": "function"
    },
    {
      "inputs": [
        {
          "internalType": "address",
          "name": "owner",
          "type": "address"
        }
      ],
      "name": "balanceOf",
      "outputs": [
        {
          "internalType": "uint256",
          "name": "",
          "type": "uint256"
        }
      ],
      "stateMutability": "view",
      "type": "function"
    },
    {
      "inputs": [
        {
          "internalType": "uint256",
          "name": "firId",
          "type": "uint256"
        }
      ],
      "name": "caseSolved",
      "outputs": [
        {
          "internalType": "bool",
          "name": "",
          "type": "bool"
        }
      ],
      "stateMutability": "nonpayable",
      "type": "function"
    },
    {
      "inputs": [
        {
          "internalType": "string",
          "name": "_tokenURI",
          "type": "string"
        }
      ],
      "name": "fileComplaint",
      "outputs": [
        {
          "internalType": "uint256",
          "name": "",
          "type": "uint256"
        }
      ],
      "stateMutability": "nonpayable",
      "type": "function"
    },
    {
      "inputs": [
        {
          "internalType": "uint256",
          "name": "tokenId",
          "type": "uint256"
        }
      ],
      "name": "getApproved",
      "outputs": [
        {
          "internalType": "address",
          "name": "",
          "type": "address"
        }
      ],
      "stateMutability": "view",
      "type": "function"
    },
    {
      "inputs": [
        {
          "internalType": "bytes32",
          "name": "role",
          "type": "bytes32"
        }
      ],
      "name": "getRoleAdmin",
      "outputs": [
        {
          "internalType": "bytes32",
          "name": "",
          "type": "bytes32"
        }
      ],
      "stateMutability": "view",
      "type": "function"
    },
    {
      "inputs": [
        {
          "internalType": "bytes32",
          "name": "role",
          "type": "bytes32"
        },
        {
          "internalType": "address",
          "name": "account",
          "type": "address"
        }
      ],
      "name": "grantRole",
      "outputs": [],
      "stateMutability": "nonpayable",
      "type": "function"
    },
    {
      "inputs": [
        {
          "internalType": "bytes32",
          "name": "role",
          "type": "bytes32"
        },
        {
          "internalType": "address",
          "name": "account",
          "type": "address"
        }
      ],
      "name": "hasRole",
      "outputs": [
        {
          "internalType": "bool",
          "name": "",
          "type": "bool"
        }
      ],
      "stateMutability": "view",
      "type": "function"
    },
    {
      "inputs": [],
      "name": "idCounter",
      "outputs": [
        {
          "internalType": "uint256",
          "name": "_value",
          "type": "uint256"
        }
      ],
      "stateMutability": "view",
      "type": "function"
    },
    {
      "inputs": [
        {
          "internalType": "address",
          "name": "owner",
          "type": "address"
        },
        {
          "internalType": "address",
          "name": "operator",
          "type": "address"
        }
      ],
      "name": "isApprovedForAll",
      "outputs": [
        {
          "internalType": "bool",
          "name": "",
          "type": "bool"
        }
      ],
      "stateMutability": "view",
      "type": "function"
    },
    {
      "inputs": [],
      "name": "name",
      "outputs": [
        {
          "internalType": "string",
          "name": "",
          "type": "string"
        }
      ],
      "stateMutability": "view",
      "type": "function"
    },
    {
      "inputs": [
        {
          "internalType": "uint256",
          "name": "tokenId",
          "type": "uint256"
        }
      ],
      "name": "ownerOf",
      "outputs": [
        {
          "internalType": "address",
          "name": "",
          "type": "address"
        }
      ],
      "stateMutability": "view",
      "type": "function"
    },
    {
      "inputs": [
        {
          "internalType": "uint256",
          "name": "",
          "type": "uint256"
        }
      ],
      "name": "raisedBy",
      "outputs": [
        {
          "internalType": "address",
          "name": "",
          "type": "address"
        }
      ],
      "stateMutability": "view",
      "type": "function"
    },
    {
      "inputs": [
        {
          "internalType": "bytes32",
          "name": "role",
          "type": "bytes32"
        },
        {
          "internalType": "address",
          "name": "account",
          "type": "address"
        }
      ],
      "name": "renounceRole",
      "outputs": [],
      "stateMutability": "nonpayable",
      "type": "function"
    },
    {
      "inputs": [
        {
          "internalType": "bytes32",
          "name": "role",
          "type": "bytes32"
        },
        {
          "internalType": "address",
          "name": "account",
          "type": "address"
        }
      ],
      "name": "revokeRole",
      "outputs": [],
      "stateMutability": "nonpayable",
      "type": "function"
    },
    {
      "inputs": [
        {
          "internalType": "address",
          "name": "from",
          "type": "address"
        },
        {
          "internalType": "address",
          "name": "to",
          "type": "address"
        },
        {
          "internalType": "uint256",
          "name": "tokenId",
          "type": "uint256"
        }
      ],
      "name": "safeTransferFrom",
      "outputs": [],
      "stateMutability": "nonpayable",
      "type": "function"
    },
    {
      "inputs": [
        {
          "internalType": "address",
          "name": "from",
          "type": "address"
        },
        {
          "internalType": "address",
          "name": "to",
          "type": "address"
        },
        {
          "internalType": "uint256",
          "name": "tokenId",
          "type": "uint256"
        },
        {
          "internalType": "bytes",
          "name": "data",
          "type": "bytes"
        }
      ],
      "name": "safeTransferFrom",
      "outputs": [],
      "stateMutability": "nonpayable",
      "type": "function"
    },
    {
      "inputs": [
        {
          "internalType": "address",
          "name": "operator",
          "type": "address"
        },
        {
          "internalType": "bool",
          "name": "approved",
          "type": "bool"
        }
      ],
      "name": "setApprovalForAll",
      "outputs": [],
      "stateMutability": "nonpayable",
      "type": "function"
    },
    {
      "inputs": [
        {
          "internalType": "bytes4",
          "name": "interfaceId",
          "type": "bytes4"
        }
      ],
      "name": "supportsInterface",
      "outputs": [
        {
          "internalType": "bool",
          "name": "",
          "type": "bool"
        }
      ],
      "stateMutability": "view",
      "type": "function"
    },
    {
      "inputs": [],
      "name": "symbol",
      "outputs": [
        {
          "internalType": "string",
          "name": "",
          "type": "string"
        }
      ],
      "stateMutability": "view",
      "type": "function"
    },
    {
      "inputs": [
        {
          "internalType": "uint256",
          "name": "tokenId",
          "type": "uint256"
        }
      ],
      "name": "tokenURI",
      "outputs": [
        {
          "internalType": "string",
          "name": "",
          "type": "string"
        }
      ],
      "stateMutability": "view",
      "type": "function"
    },
    {
      "inputs": [
        {
          "internalType": "address",
          "name": "from",
          "type": "address"
        },
        {
          "internalType": "address",
          "name": "to",
          "type": "address"
        },
        {
          "internalType": "uint256",
          "name": "tokenId",
          "type": "uint256"
        }
      ],
      "name": "transferFrom",
      "outputs": [],
      "stateMutability": "nonpayable",
      "type": "function"
    },
    {
      "inputs": [
        {
          "internalType": "uint256",
          "name": "firId",
          "type": "uint256"
        }
      ],
      "name": "withdrawComplain",
      "outputs": [
        {
          "internalType": "bool",
          "name": "",
          "type": "bool"
        }
      ],
      "stateMutability": "nonpayable",
      "type": "function"
    }
  ],
  "transactionHash": "0x327dbc2da7bcda20681e05b079420d0d4b39cc3275de5d2dbcab5d198ebcc0c7",
  "args": [],
  "numDeployments": 1,
  "solcInputHash": "b26d1abded22a2591d1dcc4cdff402e0",
  "bytecode": "0x60806040523480156200001157600080fd5b506040518060400160405280601381526020017f4669727374205265706f72742053797374656d000000000000000000000000008152506040518060400160405280600381526020017f464952000000000000000000000000000000000000000000000000000000000081525081600090816200008f9190620004cb565b508060019081620000a19190620004cb565b505050620000bb6009620000d660201b6200111b1760201c565b620000d06000801b33620000ec60201b60201c565b620005b2565b6001816000016000828254019250508190555050565b620000fe8282620001de60201b60201c565b620001da5760016007600084815260200190815260200160002060000160008373ffffffffffffffffffffffffffffffffffffffff1673ffffffffffffffffffffffffffffffffffffffff16815260200190815260200160002060006101000a81548160ff0219169083151502179055506200017f6200024960201b60201c565b73ffffffffffffffffffffffffffffffffffffffff168173ffffffffffffffffffffffffffffffffffffffff16837f2f8788117e7eff1d82e926ec794901d17c78024a50270940304540a733656f0d60405160405180910390a45b5050565b60006007600084815260200190815260200160002060000160008373ffffffffffffffffffffffffffffffffffffffff1673ffffffffffffffffffffffffffffffffffffffff16815260200190815260200160002060009054906101000a900460ff16905092915050565b600033905090565b600081519050919050565b7f4e487b7100000000000000000000000000000000000000000000000000000000600052604160045260246000fd5b7f4e487b7100000000000000000000000000000000000000000000000000000000600052602260045260246000fd5b60006002820490506001821680620002d357607f821691505b602082108103620002e957620002e86200028b565b5b50919050565b60008190508160005260206000209050919050565b60006020601f8301049050919050565b600082821b905092915050565b600060088302620003537fffffffffffffffffffffffffffffffffffffffffffffffffffffffffffffffff8262000314565b6200035f868362000314565b95508019841693508086168417925050509392505050565b6000819050919050565b6000819050919050565b6000620003ac620003a6620003a08462000377565b62000381565b62000377565b9050919050565b6000819050919050565b620003c8836200038b565b620003e0620003d782620003b3565b84845462000321565b825550505050565b600090565b620003f7620003e8565b62000404818484620003bd565b505050565b5b818110156200042c5762000420600082620003ed565b6001810190506200040a565b5050565b601f8211156200047b576200044581620002ef565b620004508462000304565b8101602085101562000460578190505b620004786200046f8562000304565b83018262000409565b50505b505050565b600082821c905092915050565b6000620004a06000198460080262000480565b1980831691505092915050565b6000620004bb83836200048d565b9150826002028217905092915050565b620004d68262000251565b67ffffffffffffffff811115620004f257620004f16200025c565b5b620004fe8254620002ba565b6200050b82828562000430565b600060209050601f8311600181146200054357600084156200052e578287015190505b6200053a8582620004ad565b865550620005aa565b601f1984166200055386620002ef565b60005b828110156200057d5784890151825560018201915060208501945060208101905062000556565b868310156200059d578489015162000599601f8916826200048d565b8355505b6001600288020188555050505b505050505050565b613ed480620005c26000396000f3fe608060405234801561001057600080fd5b50600436106101a95760003560e01c806365d96f4b116100f9578063a22cb46511610097578063d547741f11610071578063d547741f14610518578063e985e9c514610534578063eb08ab2814610564578063fccc86cf14610582576101a9565b8063a22cb465146104b0578063b88d4fde146104cc578063c87b56dd146104e8576101a9565b80638ec6269e116100d35780638ec6269e1461042657806391d148541461044457806395d89b4114610474578063a217fddf14610492576101a9565b806365d96f4b1461039657806370a08231146103c65780638e63818f146103f6576101a9565b8063248a9ca31161016657806342842e0e1161014057806342842e0e146102ea57806344661c511461030657806349ebcd53146103365780636352211e14610366576101a9565b8063248a9ca3146102825780632f2ff15d146102b257806336568abe146102ce576101a9565b806301ffc9a7146101ae57806306fdde03146101de578063081812fc146101fc578063095ea7b31461022c5780632087a00e1461024857806323b872dd14610266575b600080fd5b6101c860048036038101906101c3919061288c565b6105b2565b6040516101d591906128d4565b60405180910390f35b6101e66105c4565b6040516101f3919061297f565b60405180910390f35b610216600480360381019061021191906129d7565b610656565b6040516102239190612a45565b60405180910390f35b61024660048036038101906102419190612a8c565b61069c565b005b6102506107b3565b60405161025d9190612ae5565b60405180910390f35b610280600480360381019061027b9190612b00565b6107d7565b005b61029c60048036038101906102979190612b7f565b610837565b6040516102a99190612ae5565b60405180910390f35b6102cc60048036038101906102c79190612bac565b610857565b005b6102e860048036038101906102e39190612bac565b610878565b005b61030460048036038101906102ff9190612b00565b6108fb565b005b610320600480360381019061031b9190612bec565b61091b565b60405161032d91906128d4565b60405180910390f35b610350600480360381019061034b9190612d61565b610987565b60405161035d9190612db9565b60405180910390f35b610380600480360381019061037b91906129d7565b610a57565b60405161038d9190612a45565b60405180910390f35b6103b060048036038101906103ab91906129d7565b610add565b6040516103bd91906128d4565b60405180910390f35b6103e060048036038101906103db9190612dd4565b610b8d565b6040516103ed9190612db9565b60405180910390f35b610410600480360381019061040b91906129d7565b610c44565b60405161041d9190612a45565b60405180910390f35b61042e610c77565b60405161043b9190612ae5565b60405180910390f35b61045e60048036038101906104599190612bac565b610c9b565b60405161046b91906128d4565b60405180910390f35b61047c610d06565b604051610489919061297f565b60405180910390f35b61049a610d98565b6040516104a79190612ae5565b60405180910390f35b6104ca60048036038101906104c59190612e2d565b610d9f565b005b6104e660048036038101906104e19190612f0e565b610db5565b005b61050260048036038101906104fd91906129d7565b610e17565b60405161050f919061297f565b60405180910390f35b610532600480360381019061052d9190612bac565b610f29565b005b61054e60048036038101906105499190612f91565b610f4a565b60405161055b91906128d4565b60405180910390f35b61056c610fde565b6040516105799190612db9565b60405180910390f35b61059c600480360381019061059791906129d7565b610fea565b6040516105a991906128d4565b60405180910390f35b60006105bd82611131565b9050919050565b6060600080546105d390613000565b80601f01602080910402602001604051908101604052809291908181526020018280546105ff90613000565b801561064c5780601f106106215761010080835404028352916020019161064c565b820191906000526020600020905b81548152906001019060200180831161062f57829003601f168201915b5050505050905090565b6000610661826111ab565b6004600083815260200190815260200160002060009054906101000a900473ffffffffffffffffffffffffffffffffffffffff169050919050565b60006106a782610a57565b90508073ffffffffffffffffffffffffffffffffffffffff168373ffffffffffffffffffffffffffffffffffffffff1603610717576040517f08c379a000000000000000000000000000000000000000000000000000000000815260040161070e906130a3565b60405180910390fd5b8073ffffffffffffffffffffffffffffffffffffffff166107366111f6565b73ffffffffffffffffffffffffffffffffffffffff16148061076557506107648161075f6111f6565b610f4a565b5b6107a4576040517f08c379a000000000000000000000000000000000000000000000000000000000815260040161079b90613135565b60405180910390fd5b6107ae83836111fe565b505050565b7f3c897272fb756004d8a8588422a9ce6e04768b2d705bbde7a87ceb35e9b9c5d981565b6107e86107e26111f6565b826112b7565b610827576040517f08c379a000000000000000000000000000000000000000000000000000000000815260040161081e906131c7565b60405180910390fd5b61083283838361134c565b505050565b600060076000838152602001908152602001600020600101549050919050565b61086082610837565b61086981611645565b6108738383611659565b505050565b6108806111f6565b73ffffffffffffffffffffffffffffffffffffffff168173ffffffffffffffffffffffffffffffffffffffff16146108ed576040517f08c379a00000000000000000000000000000000000000000000000000000000081526004016108e490613259565b60405180910390fd5b6108f7828261173a565b5050565b61091683838360405180602001604052806000815250610db5565b505050565b60007f3c897272fb756004d8a8588422a9ce6e04768b2d705bbde7a87ceb35e9b9c5d961094781611645565b6109717f16cedf8f601395ad37b8f7ac016395362fad21dfdd3152a47a294d9c5a3c29748461181c565b61097c30848661134c565b600191505092915050565b6000806109926111f6565b905060006109a060096118a1565b90506109ac30826118af565b6109b68185611acc565b816008600083815260200190815260200160002060006101000a81548173ffffffffffffffffffffffffffffffffffffffff021916908373ffffffffffffffffffffffffffffffffffffffff160217905550610a12600961111b565b7f5e80f36864bfcf9b253853e0e22e708863e1ed3bc21240b776f5986a3739bb5a828286604051610a4593929190613279565b60405180910390a18092505050919050565b600080610a6383611b70565b9050600073ffffffffffffffffffffffffffffffffffffffff168173ffffffffffffffffffffffffffffffffffffffff1603610ad4576040517f08c379a0000000000000000000000000000000000000000000000000000000008152600401610acb90613303565b60405180910390fd5b80915050919050565b60007f3c897272fb756004d8a8588422a9ce6e04768b2d705bbde7a87ceb35e9b9c5d9610b0981611645565b6000610b1484611b70565b9050610b407f16cedf8f601395ad37b8f7ac016395362fad21dfdd3152a47a294d9c5a3c29748261181c565b610b4984611bad565b7f79405f0885f3848051f04ca2258d99674f04a4f8dbbf73ee6976543dbd7aa6858442604051610b7a929190613323565b60405180910390a1600192505050919050565b60008073ffffffffffffffffffffffffffffffffffffffff168273ffffffffffffffffffffffffffffffffffffffff1603610bfd576040517f08c379a0000000000000000000000000000000000000000000000000000000008152600401610bf4906133be565b60405180910390fd5b600360008373ffffffffffffffffffffffffffffffffffffffff1673ffffffffffffffffffffffffffffffffffffffff168152602001908152602001600020549050919050565b60086020528060005260406000206000915054906101000a900473ffffffffffffffffffffffffffffffffffffffff1681565b7f16cedf8f601395ad37b8f7ac016395362fad21dfdd3152a47a294d9c5a3c297481565b60006007600084815260200190815260200160002060000160008373ffffffffffffffffffffffffffffffffffffffff1673ffffffffffffffffffffffffffffffffffffffff16815260200190815260200160002060009054906101000a900460ff16905092915050565b606060018054610d1590613000565b80601f0160208091040260200160405190810160405280929190818152602001828054610d4190613000565b8015610d8e5780601f10610d6357610100808354040283529160200191610d8e565b820191906000526020600020905b815481529060010190602001808311610d7157829003601f168201915b5050505050905090565b6000801b81565b610db1610daa6111f6565b8383611c00565b5050565b610dc6610dc06111f6565b836112b7565b610e05576040517f08c379a0000000000000000000000000000000000000000000000000000000008152600401610dfc906131c7565b60405180910390fd5b610e1184848484611d6c565b50505050565b6060610e22826111ab565b6000600660008481526020019081526020016000208054610e4290613000565b80601f0160208091040260200160405190810160405280929190818152602001828054610e6e90613000565b8015610ebb5780601f10610e9057610100808354040283529160200191610ebb565b820191906000526020600020905b815481529060010190602001808311610e9e57829003601f168201915b505050505090506000610ecc611dc8565b90506000815103610ee1578192505050610f24565b600082511115610f16578082604051602001610efe92919061341a565b60405160208183030381529060405292505050610f24565b610f1f84611ddf565b925050505b919050565b610f3282610837565b610f3b81611645565b610f45838361173a565b505050565b6000600560008473ffffffffffffffffffffffffffffffffffffffff1673ffffffffffffffffffffffffffffffffffffffff16815260200190815260200160002060008373ffffffffffffffffffffffffffffffffffffffff1673ffffffffffffffffffffffffffffffffffffffff16815260200190815260200160002060009054906101000a900460ff16905092915050565b60098060000154905081565b600080610ff56111f6565b90508073ffffffffffffffffffffffffffffffffffffffff166008600085815260200190815260200160002060009054906101000a900473ffffffffffffffffffffffffffffffffffffffff1673ffffffffffffffffffffffffffffffffffffffff161461106282611e47565b61106b85611e74565b60405160200161107c9291906134d6565b604051602081830303815290604052906110cc576040517f08c379a00000000000000000000000000000000000000000000000000000000081526004016110c3919061297f565b60405180910390fd5b506110d683611bad565b7fe7734070ac6df15499d7475ef625e2613a41d605360e46456fb56c29344f98ec81844260405161110993929190613510565b60405180910390a16001915050919050565b6001816000016000828254019250508190555050565b60007f7965db0b000000000000000000000000000000000000000000000000000000007bffffffffffffffffffffffffffffffffffffffffffffffffffffffff1916827bffffffffffffffffffffffffffffffffffffffffffffffffffffffff191614806111a457506111a382611f42565b5b9050919050565b6111b481611fa3565b6111f3576040517f08c379a00000000000000000000000000000000000000000000000000000000081526004016111ea90613303565b60405180910390fd5b50565b600033905090565b816004600083815260200190815260200160002060006101000a81548173ffffffffffffffffffffffffffffffffffffffff021916908373ffffffffffffffffffffffffffffffffffffffff160217905550808273ffffffffffffffffffffffffffffffffffffffff1661127183610a57565b73ffffffffffffffffffffffffffffffffffffffff167f8c5be1e5ebec7d5bd14f71427d1e84f3dd0314c0f7b2291e5b200ac8c7c3b92560405160405180910390a45050565b6000806112c383610a57565b90508073ffffffffffffffffffffffffffffffffffffffff168473ffffffffffffffffffffffffffffffffffffffff16148061130557506113048185610f4a565b5b8061134357508373ffffffffffffffffffffffffffffffffffffffff1661132b84610656565b73ffffffffffffffffffffffffffffffffffffffff16145b91505092915050565b8273ffffffffffffffffffffffffffffffffffffffff1661136c82610a57565b73ffffffffffffffffffffffffffffffffffffffff16146113c2576040517f08c379a00000000000000000000000000000000000000000000000000000000081526004016113b9906135b9565b60405180910390fd5b600073ffffffffffffffffffffffffffffffffffffffff168273ffffffffffffffffffffffffffffffffffffffff1603611431576040517f08c379a00000000000000000000000000000000000000000000000000000000081526004016114289061364b565b60405180910390fd5b61143e8383836001611fe4565b8273ffffffffffffffffffffffffffffffffffffffff1661145e82610a57565b73ffffffffffffffffffffffffffffffffffffffff16146114b4576040517f08c379a00000000000000000000000000000000000000000000000000000000081526004016114ab906135b9565b60405180910390fd5b6004600082815260200190815260200160002060006101000a81549073ffffffffffffffffffffffffffffffffffffffff02191690556001600360008573ffffffffffffffffffffffffffffffffffffffff1673ffffffffffffffffffffffffffffffffffffffff168152602001908152602001600020600082825403925050819055506001600360008473ffffffffffffffffffffffffffffffffffffffff1673ffffffffffffffffffffffffffffffffffffffff16815260200190815260200160002060008282540192505081905550816002600083815260200190815260200160002060006101000a81548173ffffffffffffffffffffffffffffffffffffffff021916908373ffffffffffffffffffffffffffffffffffffffff160217905550808273ffffffffffffffffffffffffffffffffffffffff168473ffffffffffffffffffffffffffffffffffffffff167fddf252ad1be2c89b69c2b068fc378daa952ba7f163c4a11628f55a4df523b3ef60405160405180910390a46116408383836001611fea565b505050565b611656816116516111f6565b61181c565b50565b6116638282610c9b565b6117365760016007600084815260200190815260200160002060000160008373ffffffffffffffffffffffffffffffffffffffff1673ffffffffffffffffffffffffffffffffffffffff16815260200190815260200160002060006101000a81548160ff0219169083151502179055506116db6111f6565b73ffffffffffffffffffffffffffffffffffffffff168173ffffffffffffffffffffffffffffffffffffffff16837f2f8788117e7eff1d82e926ec794901d17c78024a50270940304540a733656f0d60405160405180910390a45b5050565b6117448282610c9b565b156118185760006007600084815260200190815260200160002060000160008373ffffffffffffffffffffffffffffffffffffffff1673ffffffffffffffffffffffffffffffffffffffff16815260200190815260200160002060006101000a81548160ff0219169083151502179055506117bd6111f6565b73ffffffffffffffffffffffffffffffffffffffff168173ffffffffffffffffffffffffffffffffffffffff16837ff6391f5c32d9c69d2a47ea670b442974b53935d1edc7fd64eb21e047a839171b60405160405180910390a45b5050565b6118268282610c9b565b61189d5761183381611e47565b6118418360001c6020611ff0565b604051602001611852929190613703565b6040516020818303038152906040526040517f08c379a0000000000000000000000000000000000000000000000000000000008152600401611894919061297f565b60405180910390fd5b5050565b600081600001549050919050565b600073ffffffffffffffffffffffffffffffffffffffff168273ffffffffffffffffffffffffffffffffffffffff160361191e576040517f08c379a000000000000000000000000000000000000000000000000000000000815260040161191590613789565b60405180910390fd5b61192781611fa3565b15611967576040517f08c379a000000000000000000000000000000000000000000000000000000000815260040161195e906137f5565b60405180910390fd5b611975600083836001611fe4565b61197e81611fa3565b156119be576040517f08c379a00000000000000000000000000000000000000000000000000000000081526004016119b5906137f5565b60405180910390fd5b6001600360008473ffffffffffffffffffffffffffffffffffffffff1673ffffffffffffffffffffffffffffffffffffffff16815260200190815260200160002060008282540192505081905550816002600083815260200190815260200160002060006101000a81548173ffffffffffffffffffffffffffffffffffffffff021916908373ffffffffffffffffffffffffffffffffffffffff160217905550808273ffffffffffffffffffffffffffffffffffffffff16600073ffffffffffffffffffffffffffffffffffffffff167fddf252ad1be2c89b69c2b068fc378daa952ba7f163c4a11628f55a4df523b3ef60405160405180910390a4611ac8600083836001611fea565b5050565b611ad582611fa3565b611b14576040517f08c379a0000000000000000000000000000000000000000000000000000000008152600401611b0b90613887565b60405180910390fd5b80600660008481526020019081526020016000209081611b349190613a53565b507ff8e1a15aba9398e019f0b49df1a4fde98ee17ae345cb5f6b5e2c27f5033e8ce782604051611b649190612db9565b60405180910390a15050565b60006002600083815260200190815260200160002060009054906101000a900473ffffffffffffffffffffffffffffffffffffffff169050919050565b611bb68161222c565b6000600660008381526020019081526020016000208054611bd690613000565b905014611bfd57600660008281526020019081526020016000206000611bfc91906127c3565b5b50565b8173ffffffffffffffffffffffffffffffffffffffff168373ffffffffffffffffffffffffffffffffffffffff1603611c6e576040517f08c379a0000000000000000000000000000000000000000000000000000000008152600401611c6590613b71565b60405180910390fd5b80600560008573ffffffffffffffffffffffffffffffffffffffff1673ffffffffffffffffffffffffffffffffffffffff16815260200190815260200160002060008473ffffffffffffffffffffffffffffffffffffffff1673ffffffffffffffffffffffffffffffffffffffff16815260200190815260200160002060006101000a81548160ff0219169083151502179055508173ffffffffffffffffffffffffffffffffffffffff168373ffffffffffffffffffffffffffffffffffffffff167f17307eab39ab6107e8899845ad3d59bd9653f200f220920489ca2b5937696c3183604051611d5f91906128d4565b60405180910390a3505050565b611d7784848461134c565b611d838484848461237a565b611dc2576040517f08c379a0000000000000000000000000000000000000000000000000000000008152600401611db990613c03565b60405180910390fd5b50505050565b606060405180602001604052806000815250905090565b6060611dea826111ab565b6000611df4611dc8565b90506000815111611e145760405180602001604052806000815250611e3f565b80611e1e84611e74565b604051602001611e2f92919061341a565b6040516020818303038152906040525b915050919050565b6060611e6d8273ffffffffffffffffffffffffffffffffffffffff16601460ff16611ff0565b9050919050565b606060006001611e8384612501565b01905060008167ffffffffffffffff811115611ea257611ea1612c36565b5b6040519080825280601f01601f191660200182016040528015611ed45781602001600182028036833780820191505090505b509050600082602001820190505b600115611f37578080600190039150507f3031323334353637383961626364656600000000000000000000000000000000600a86061a8153600a8581611f2b57611f2a613c23565b5b04945060008503611ee2575b819350505050919050565b6000634906490660e01b7bffffffffffffffffffffffffffffffffffffffffffffffffffffffff1916827bffffffffffffffffffffffffffffffffffffffffffffffffffffffff19161480611f9c5750611f9b82612654565b5b9050919050565b60008073ffffffffffffffffffffffffffffffffffffffff16611fc583611b70565b73ffffffffffffffffffffffffffffffffffffffff1614159050919050565b50505050565b50505050565b6060600060028360026120039190613c81565b61200d9190613cc3565b67ffffffffffffffff81111561202657612025612c36565b5b6040519080825280601f01601f1916602001820160405280156120585781602001600182028036833780820191505090505b5090507f3000000000000000000000000000000000000000000000000000000000000000816000815181106120905761208f613cf7565b5b60200101907effffffffffffffffffffffffffffffffffffffffffffffffffffffffffffff1916908160001a9053507f7800000000000000000000000000000000000000000000000000000000000000816001815181106120f4576120f3613cf7565b5b60200101907effffffffffffffffffffffffffffffffffffffffffffffffffffffffffffff1916908160001a905350600060018460026121349190613c81565b61213e9190613cc3565b90505b60018111156121de577f3031323334353637383961626364656600000000000000000000000000000000600f8616601081106121805761217f613cf7565b5b1a60f81b82828151811061219757612196613cf7565b5b60200101907effffffffffffffffffffffffffffffffffffffffffffffffffffffffffffff1916908160001a905350600485901c9450806121d790613d26565b9050612141565b5060008414612222576040517f08c379a000000000000000000000000000000000000000000000000000000000815260040161221990613d9b565b60405180910390fd5b8091505092915050565b600061223782610a57565b9050612247816000846001611fe4565b61225082610a57565b90506004600083815260200190815260200160002060006101000a81549073ffffffffffffffffffffffffffffffffffffffff02191690556001600360008373ffffffffffffffffffffffffffffffffffffffff1673ffffffffffffffffffffffffffffffffffffffff168152602001908152602001600020600082825403925050819055506002600083815260200190815260200160002060006101000a81549073ffffffffffffffffffffffffffffffffffffffff021916905581600073ffffffffffffffffffffffffffffffffffffffff168273ffffffffffffffffffffffffffffffffffffffff167fddf252ad1be2c89b69c2b068fc378daa952ba7f163c4a11628f55a4df523b3ef60405160405180910390a4612376816000846001611fea565b5050565b600061239b8473ffffffffffffffffffffffffffffffffffffffff16612736565b156124f4578373ffffffffffffffffffffffffffffffffffffffff1663150b7a026123c46111f6565b8786866040518563ffffffff1660e01b81526004016123e69493929190613e10565b6020604051808303816000875af192505050801561242257506040513d601f19601f8201168201806040525081019061241f9190613e71565b60015b6124a4573d8060008114612452576040519150601f19603f3d011682016040523d82523d6000602084013e612457565b606091505b50600081510361249c576040517f08c379a000000000000000000000000000000000000000000000000000000000815260040161249390613c03565b60405180910390fd5b805181602001fd5b63150b7a0260e01b7bffffffffffffffffffffffffffffffffffffffffffffffffffffffff1916817bffffffffffffffffffffffffffffffffffffffffffffffffffffffff1916149150506124f9565b600190505b949350505050565b600080600090507a184f03e93ff9f4daa797ed6e38ed64bf6a1f010000000000000000831061255f577a184f03e93ff9f4daa797ed6e38ed64bf6a1f010000000000000000838161255557612554613c23565b5b0492506040810190505b6d04ee2d6d415b85acef8100000000831061259c576d04ee2d6d415b85acef8100000000838161259257612591613c23565b5b0492506020810190505b662386f26fc1000083106125cb57662386f26fc1000083816125c1576125c0613c23565b5b0492506010810190505b6305f5e10083106125f4576305f5e10083816125ea576125e9613c23565b5b0492506008810190505b612710831061261957612710838161260f5761260e613c23565b5b0492506004810190505b6064831061263c576064838161263257612631613c23565b5b0492506002810190505b600a831061264b576001810190505b80915050919050565b60007f80ac58cd000000000000000000000000000000000000000000000000000000007bffffffffffffffffffffffffffffffffffffffffffffffffffffffff1916827bffffffffffffffffffffffffffffffffffffffffffffffffffffffff1916148061271f57507f5b5e139f000000000000000000000000000000000000000000000000000000007bffffffffffffffffffffffffffffffffffffffffffffffffffffffff1916827bffffffffffffffffffffffffffffffffffffffffffffffffffffffff1916145b8061272f575061272e82612759565b5b9050919050565b6000808273ffffffffffffffffffffffffffffffffffffffff163b119050919050565b60007f01ffc9a7000000000000000000000000000000000000000000000000000000007bffffffffffffffffffffffffffffffffffffffffffffffffffffffff1916827bffffffffffffffffffffffffffffffffffffffffffffffffffffffff1916149050919050565b5080546127cf90613000565b6000825580601f106127e15750612800565b601f0160209004906000526020600020908101906127ff9190612803565b5b50565b5b8082111561281c576000816000905550600101612804565b5090565b6000604051905090565b600080fd5b600080fd5b60007fffffffff0000000000000000000000000000000000000000000000000000000082169050919050565b61286981612834565b811461287457600080fd5b50565b60008135905061288681612860565b92915050565b6000602082840312156128a2576128a161282a565b5b60006128b084828501612877565b91505092915050565b60008115159050919050565b6128ce816128b9565b82525050565b60006020820190506128e960008301846128c5565b92915050565b600081519050919050565b600082825260208201905092915050565b60005b8381101561292957808201518184015260208101905061290e565b60008484015250505050565b6000601f19601f8301169050919050565b6000612951826128ef565b61295b81856128fa565b935061296b81856020860161290b565b61297481612935565b840191505092915050565b600060208201905081810360008301526129998184612946565b905092915050565b6000819050919050565b6129b4816129a1565b81146129bf57600080fd5b50565b6000813590506129d1816129ab565b92915050565b6000602082840312156129ed576129ec61282a565b5b60006129fb848285016129c2565b91505092915050565b600073ffffffffffffffffffffffffffffffffffffffff82169050919050565b6000612a2f82612a04565b9050919050565b612a3f81612a24565b82525050565b6000602082019050612a5a6000830184612a36565b92915050565b612a6981612a24565b8114612a7457600080fd5b50565b600081359050612a8681612a60565b92915050565b60008060408385031215612aa357612aa261282a565b5b6000612ab185828601612a77565b9250506020612ac2858286016129c2565b9150509250929050565b6000819050919050565b612adf81612acc565b82525050565b6000602082019050612afa6000830184612ad6565b92915050565b600080600060608486031215612b1957612b1861282a565b5b6000612b2786828701612a77565b9350506020612b3886828701612a77565b9250506040612b49868287016129c2565b9150509250925092565b612b5c81612acc565b8114612b6757600080fd5b50565b600081359050612b7981612b53565b92915050565b600060208284031215612b9557612b9461282a565b5b6000612ba384828501612b6a565b91505092915050565b60008060408385031215612bc357612bc261282a565b5b6000612bd185828601612b6a565b9250506020612be285828601612a77565b9150509250929050565b60008060408385031215612c0357612c0261282a565b5b6000612c11858286016129c2565b9250506020612c2285828601612a77565b9150509250929050565b600080fd5b600080fd5b7f4e487b7100000000000000000000000000000000000000000000000000000000600052604160045260246000fd5b612c6e82612935565b810181811067ffffffffffffffff82111715612c8d57612c8c612c36565b5b80604052505050565b6000612ca0612820565b9050612cac8282612c65565b919050565b600067ffffffffffffffff821115612ccc57612ccb612c36565b5b612cd582612935565b9050602081019050919050565b82818337600083830152505050565b6000612d04612cff84612cb1565b612c96565b905082815260208101848484011115612d2057612d1f612c31565b5b612d2b848285612ce2565b509392505050565b600082601f830112612d4857612d47612c2c565b5b8135612d58848260208601612cf1565b91505092915050565b600060208284031215612d7757612d7661282a565b5b600082013567ffffffffffffffff811115612d9557612d9461282f565b5b612da184828501612d33565b91505092915050565b612db3816129a1565b82525050565b6000602082019050612dce6000830184612daa565b92915050565b600060208284031215612dea57612de961282a565b5b6000612df884828501612a77565b91505092915050565b612e0a816128b9565b8114612e1557600080fd5b50565b600081359050612e2781612e01565b92915050565b60008060408385031215612e4457612e4361282a565b5b6000612e5285828601612a77565b9250506020612e6385828601612e18565b9150509250929050565b600067ffffffffffffffff821115612e8857612e87612c36565b5b612e9182612935565b9050602081019050919050565b6000612eb1612eac84612e6d565b612c96565b905082815260208101848484011115612ecd57612ecc612c31565b5b612ed8848285612ce2565b509392505050565b600082601f830112612ef557612ef4612c2c565b5b8135612f05848260208601612e9e565b91505092915050565b60008060008060808587031215612f2857612f2761282a565b5b6000612f3687828801612a77565b9450506020612f4787828801612a77565b9350506040612f58878288016129c2565b925050606085013567ffffffffffffffff811115612f7957612f7861282f565b5b612f8587828801612ee0565b91505092959194509250565b60008060408385031215612fa857612fa761282a565b5b6000612fb685828601612a77565b9250506020612fc785828601612a77565b9150509250929050565b7f4e487b7100000000000000000000000000000000000000000000000000000000600052602260045260246000fd5b6000600282049050600182168061301857607f821691505b60208210810361302b5761302a612fd1565b5b50919050565b7f4552433732313a20617070726f76616c20746f2063757272656e74206f776e6560008201527f7200000000000000000000000000000000000000000000000000000000000000602082015250565b600061308d6021836128fa565b915061309882613031565b604082019050919050565b600060208201905081810360008301526130bc81613080565b9050919050565b7f4552433732313a20617070726f76652063616c6c6572206973206e6f7420746f60008201527f6b656e206f776e6572206f7220617070726f76656420666f7220616c6c000000602082015250565b600061311f603d836128fa565b915061312a826130c3565b604082019050919050565b6000602082019050818103600083015261314e81613112565b9050919050565b7f4552433732313a2063616c6c6572206973206e6f7420746f6b656e206f776e6560008201527f72206f7220617070726f76656400000000000000000000000000000000000000602082015250565b60006131b1602d836128fa565b91506131bc82613155565b604082019050919050565b600060208201905081810360008301526131e0816131a4565b9050919050565b7f416363657373436f6e74726f6c3a2063616e206f6e6c792072656e6f756e636560008201527f20726f6c657320666f722073656c660000000000000000000000000000000000602082015250565b6000613243602f836128fa565b915061324e826131e7565b604082019050919050565b6000602082019050818103600083015261327281613236565b9050919050565b600060608201905061328e6000830186612a36565b61329b6020830185612daa565b81810360408301526132ad8184612946565b9050949350505050565b7f4552433732313a20696e76616c696420746f6b656e2049440000000000000000600082015250565b60006132ed6018836128fa565b91506132f8826132b7565b602082019050919050565b6000602082019050818103600083015261331c816132e0565b9050919050565b60006040820190506133386000830185612daa565b6133456020830184612daa565b9392505050565b7f4552433732313a2061646472657373207a65726f206973206e6f74206120766160008201527f6c6964206f776e65720000000000000000000000000000000000000000000000602082015250565b60006133a86029836128fa565b91506133b38261334c565b604082019050919050565b600060208201905081810360008301526133d78161339b565b9050919050565b600081905092915050565b60006133f4826128ef565b6133fe81856133de565b935061340e81856020860161290b565b80840191505092915050565b600061342682856133e9565b915061343282846133e9565b91508190509392505050565b7f4649523a20000000000000000000000000000000000000000000000000000000600082015250565b60006134746005836133de565b915061347f8261343e565b600582019050919050565b7f2063616e27742062652077697468647261776e20627920000000000000000000600082015250565b60006134c06017836133de565b91506134cb8261348a565b601782019050919050565b60006134e182613467565b91506134ed82856133e9565b91506134f8826134b3565b915061350482846133e9565b91508190509392505050565b60006060820190506135256000830186612a36565b6135326020830185612daa565b61353f6040830184612daa565b949350505050565b7f4552433732313a207472616e736665722066726f6d20696e636f72726563742060008201527f6f776e6572000000000000000000000000000000000000000000000000000000602082015250565b60006135a36025836128fa565b91506135ae82613547565b604082019050919050565b600060208201905081810360008301526135d281613596565b9050919050565b7f4552433732313a207472616e7366657220746f20746865207a65726f2061646460008201527f7265737300000000000000000000000000000000000000000000000000000000602082015250565b60006136356024836128fa565b9150613640826135d9565b604082019050919050565b6000602082019050818103600083015261366481613628565b9050919050565b7f416363657373436f6e74726f6c3a206163636f756e7420000000000000000000600082015250565b60006136a16017836133de565b91506136ac8261366b565b601782019050919050565b7f206973206d697373696e6720726f6c6520000000000000000000000000000000600082015250565b60006136ed6011836133de565b91506136f8826136b7565b601182019050919050565b600061370e82613694565b915061371a82856133e9565b9150613725826136e0565b915061373182846133e9565b91508190509392505050565b7f4552433732313a206d696e7420746f20746865207a65726f2061646472657373600082015250565b60006137736020836128fa565b915061377e8261373d565b602082019050919050565b600060208201905081810360008301526137a281613766565b9050919050565b7f4552433732313a20746f6b656e20616c7265616479206d696e74656400000000600082015250565b60006137df601c836128fa565b91506137ea826137a9565b602082019050919050565b6000602082019050818103600083015261380e816137d2565b9050919050565b7f45524337323155524953746f726167653a2055524920736574206f66206e6f6e60008201527f6578697374656e7420746f6b656e000000000000000000000000000000000000602082015250565b6000613871602e836128fa565b915061387c82613815565b604082019050919050565b600060208201905081810360008301526138a081613864565b9050919050565b60008190508160005260206000209050919050565b60006020601f8301049050919050565b600082821b905092915050565b6000600883026139097fffffffffffffffffffffffffffffffffffffffffffffffffffffffffffffffff826138cc565b61391386836138cc565b95508019841693508086168417925050509392505050565b6000819050919050565b600061395061394b613946846129a1565b61392b565b6129a1565b9050919050565b6000819050919050565b61396a83613935565b61397e61397682613957565b8484546138d9565b825550505050565b600090565b613993613986565b61399e818484613961565b505050565b5b818110156139c2576139b760008261398b565b6001810190506139a4565b5050565b601f821115613a07576139d8816138a7565b6139e1846138bc565b810160208510156139f0578190505b613a046139fc856138bc565b8301826139a3565b50505b505050565b600082821c905092915050565b6000613a2a60001984600802613a0c565b1980831691505092915050565b6000613a438383613a19565b9150826002028217905092915050565b613a5c826128ef565b67ffffffffffffffff811115613a7557613a74612c36565b5b613a7f8254613000565b613a8a8282856139c6565b600060209050601f831160018114613abd5760008415613aab578287015190505b613ab58582613a37565b865550613b1d565b601f198416613acb866138a7565b60005b82811015613af357848901518255600182019150602085019450602081019050613ace565b86831015613b105784890151613b0c601f891682613a19565b8355505b6001600288020188555050505b505050505050565b7f4552433732313a20617070726f766520746f2063616c6c657200000000000000600082015250565b6000613b5b6019836128fa565b9150613b6682613b25565b602082019050919050565b60006020820190508181036000830152613b8a81613b4e565b9050919050565b7f4552433732313a207472616e7366657220746f206e6f6e20455243373231526560008201527f63656976657220696d706c656d656e7465720000000000000000000000000000602082015250565b6000613bed6032836128fa565b9150613bf882613b91565b604082019050919050565b60006020820190508181036000830152613c1c81613be0565b9050919050565b7f4e487b7100000000000000000000000000000000000000000000000000000000600052601260045260246000fd5b7f4e487b7100000000000000000000000000000000000000000000000000000000600052601160045260246000fd5b6000613c8c826129a1565b9150613c97836129a1565b9250828202613ca5816129a1565b91508282048414831517613cbc57613cbb613c52565b5b5092915050565b6000613cce826129a1565b9150613cd9836129a1565b9250828201905080821115613cf157613cf0613c52565b5b92915050565b7f4e487b7100000000000000000000000000000000000000000000000000000000600052603260045260246000fd5b6000613d31826129a1565b915060008203613d4457613d43613c52565b5b600182039050919050565b7f537472696e67733a20686578206c656e67746820696e73756666696369656e74600082015250565b6000613d856020836128fa565b9150613d9082613d4f565b602082019050919050565b60006020820190508181036000830152613db481613d78565b9050919050565b600081519050919050565b600082825260208201905092915050565b6000613de282613dbb565b613dec8185613dc6565b9350613dfc81856020860161290b565b613e0581612935565b840191505092915050565b6000608082019050613e256000830187612a36565b613e326020830186612a36565b613e3f6040830185612daa565b8181036060830152613e518184613dd7565b905095945050505050565b600081519050613e6b81612860565b92915050565b600060208284031215613e8757613e8661282a565b5b6000613e9584828501613e5c565b9150509291505056fea2646970667358221220a449594570cefb30e3a3599a0b14133b3ddf1cd288cc08a4a8b6d58732bc0e6964736f6c63430008110033",
  "devdoc": {
    "kind": "dev",
    "methods": {
      "approve(address,uint256)": {
        "details": "See {IERC721-approve}."
      },
      "balanceOf(address)": {
        "details": "See {IERC721-balanceOf}."
      },
      "getApproved(uint256)": {
        "details": "See {IERC721-getApproved}."
      },
      "getRoleAdmin(bytes32)": {
        "details": "Returns the admin role that controls `role`. See {grantRole} and {revokeRole}. To change a role's admin, use {_setRoleAdmin}."
      },
      "grantRole(bytes32,address)": {
        "details": "Grants `role` to `account`. If `account` had not been already granted `role`, emits a {RoleGranted} event. Requirements: - the caller must have ``role``'s admin role. May emit a {RoleGranted} event."
      },
      "hasRole(bytes32,address)": {
        "details": "Returns `true` if `account` has been granted `role`."
      },
      "isApprovedForAll(address,address)": {
        "details": "See {IERC721-isApprovedForAll}."
      },
      "name()": {
        "details": "See {IERC721Metadata-name}."
      },
      "ownerOf(uint256)": {
        "details": "See {IERC721-ownerOf}."
      },
      "renounceRole(bytes32,address)": {
        "details": "Revokes `role` from the calling account. Roles are often managed via {grantRole} and {revokeRole}: this function's purpose is to provide a mechanism for accounts to lose their privileges if they are compromised (such as when a trusted device is misplaced). If the calling account had been revoked `role`, emits a {RoleRevoked} event. Requirements: - the caller must be `account`. May emit a {RoleRevoked} event."
      },
      "revokeRole(bytes32,address)": {
        "details": "Revokes `role` from `account`. If `account` had been granted `role`, emits a {RoleRevoked} event. Requirements: - the caller must have ``role``'s admin role. May emit a {RoleRevoked} event."
      },
      "safeTransferFrom(address,address,uint256)": {
        "details": "See {IERC721-safeTransferFrom}."
      },
      "safeTransferFrom(address,address,uint256,bytes)": {
        "details": "See {IERC721-safeTransferFrom}."
      },
      "setApprovalForAll(address,bool)": {
        "details": "See {IERC721-setApprovalForAll}."
      },
      "symbol()": {
        "details": "See {IERC721Metadata-symbol}."
      },
      "tokenURI(uint256)": {
        "details": "See {IERC721Metadata-tokenURI}."
      },
      "transferFrom(address,address,uint256)": {
        "details": "See {IERC721-transferFrom}."
      }
    },
    "version": 1
  },
  "userdoc": {
    "kind": "user",
    "methods": {},
    "version": 1
  },
  "storageLayout": {
    "storage": [
      {
        "astId": 442,
        "contract": "contracts/FIR.sol:FIR",
        "label": "_name",
        "offset": 0,
        "slot": "0",
        "type": "t_string_storage"
      },
      {
        "astId": 444,
        "contract": "contracts/FIR.sol:FIR",
        "label": "_symbol",
        "offset": 0,
        "slot": "1",
        "type": "t_string_storage"
      },
      {
        "astId": 448,
        "contract": "contracts/FIR.sol:FIR",
        "label": "_owners",
        "offset": 0,
        "slot": "2",
        "type": "t_mapping(t_uint256,t_address)"
      },
      {
        "astId": 452,
        "contract": "contracts/FIR.sol:FIR",
        "label": "_balances",
        "offset": 0,
        "slot": "3",
        "type": "t_mapping(t_address,t_uint256)"
      },
      {
        "astId": 456,
        "contract": "contracts/FIR.sol:FIR",
        "label": "_tokenApprovals",
        "offset": 0,
        "slot": "4",
        "type": "t_mapping(t_uint256,t_address)"
      },
      {
        "astId": 462,
        "contract": "contracts/FIR.sol:FIR",
        "label": "_operatorApprovals",
        "offset": 0,
        "slot": "5",
        "type": "t_mapping(t_address,t_mapping(t_address,t_bool))"
      },
      {
        "astId": 1493,
        "contract": "contracts/FIR.sol:FIR",
        "label": "_tokenURIs",
        "offset": 0,
        "slot": "6",
        "type": "t_mapping(t_uint256,t_string_storage)"
      },
      {
        "astId": 24,
        "contract": "contracts/FIR.sol:FIR",
        "label": "_roles",
        "offset": 0,
        "slot": "7",
        "type": "t_mapping(t_bytes32,t_struct(RoleData)19_storage)"
      },
      {
        "astId": 3346,
        "contract": "contracts/FIR.sol:FIR",
        "label": "raisedBy",
        "offset": 0,
        "slot": "8",
        "type": "t_mapping(t_uint256,t_address)"
      },
      {
        "astId": 3353,
        "contract": "contracts/FIR.sol:FIR",
        "label": "idCounter",
        "offset": 0,
        "slot": "9",
        "type": "t_struct(Counter)2018_storage"
      }
    ],
    "types": {
      "t_address": {
        "encoding": "inplace",
        "label": "address",
        "numberOfBytes": "20"
      },
      "t_bool": {
        "encoding": "inplace",
        "label": "bool",
        "numberOfBytes": "1"
      },
      "t_bytes32": {
        "encoding": "inplace",
        "label": "bytes32",
        "numberOfBytes": "32"
      },
      "t_mapping(t_address,t_bool)": {
        "encoding": "mapping",
        "key": "t_address",
        "label": "mapping(address => bool)",
        "numberOfBytes": "32",
        "value": "t_bool"
      },
      "t_mapping(t_address,t_mapping(t_address,t_bool))": {
        "encoding": "mapping",
        "key": "t_address",
        "label": "mapping(address => mapping(address => bool))",
        "numberOfBytes": "32",
        "value": "t_mapping(t_address,t_bool)"
      },
      "t_mapping(t_address,t_uint256)": {
        "encoding": "mapping",
        "key": "t_address",
        "label": "mapping(address => uint256)",
        "numberOfBytes": "32",
        "value": "t_uint256"
      },
      "t_mapping(t_bytes32,t_struct(RoleData)19_storage)": {
        "encoding": "mapping",
        "key": "t_bytes32",
        "label": "mapping(bytes32 => struct AccessControl.RoleData)",
        "numberOfBytes": "32",
        "value": "t_struct(RoleData)19_storage"
      },
      "t_mapping(t_uint256,t_address)": {
        "encoding": "mapping",
        "key": "t_uint256",
        "label": "mapping(uint256 => address)",
        "numberOfBytes": "32",
        "value": "t_address"
      },
      "t_mapping(t_uint256,t_string_storage)": {
        "encoding": "mapping",
        "key": "t_uint256",
        "label": "mapping(uint256 => string)",
        "numberOfBytes": "32",
        "value": "t_string_storage"
      },
      "t_string_storage": {
        "encoding": "bytes",
        "label": "string",
        "numberOfBytes": "32"
      },
      "t_struct(Counter)2018_storage": {
        "encoding": "inplace",
        "label": "struct Counters.Counter",
        "members": [
          {
            "astId": 2017,
            "contract": "contracts/FIR.sol:FIR",
            "label": "_value",
            "offset": 0,
            "slot": "0",
            "type": "t_uint256"
          }
        ],
        "numberOfBytes": "32"
      },
      "t_struct(RoleData)19_storage": {
        "encoding": "inplace",
        "label": "struct AccessControl.RoleData",
        "members": [
          {
            "astId": 16,
            "contract": "contracts/FIR.sol:FIR",
            "label": "members",
            "offset": 0,
            "slot": "0",
            "type": "t_mapping(t_address,t_bool)"
          },
          {
            "astId": 18,
            "contract": "contracts/FIR.sol:FIR",
            "label": "adminRole",
            "offset": 0,
            "slot": "1",
            "type": "t_bytes32"
          }
        ],
        "numberOfBytes": "64"
      },
      "t_uint256": {
        "encoding": "inplace",
        "label": "uint256",
        "numberOfBytes": "32"
      }
    }
  }
}